{
  "transactions": [
    {
      "hash": "0x29a8e8a89472180fe0ffd38ed85ea02dd4fccbd4db021ca9ec9e678e5548d6da",
      "transactionType": "CALL",
      "contractName": null,
      "contractAddress": "0xf4074b3685f8f40f2dca83742dab19912a0eb2c3",
      "function": "initialize(string,string,string,address)",
      "arguments": [
        "VFinance Registry",
        "VREG",
        "http://144.22.179.183:3000",
        "0xFE3B557E8Fb62b89F4916B721be55cEb828dBd73"
      ],
      "transaction": {
        "from": "0xfe3b557e8fb62b89f4916b721be55ceb828dbd73",
        "to": "0xf4074b3685f8f40f2dca83742dab19912a0eb2c3",
        "gas": "0x9b942",
        "value": "0x0",
        "input": "0x5c6d8da1000000000000000000000000000000000000000000000000000000000000008000000000000000000000000000000000000000000000000000000000000000c00000000000000000000000000000000000000000000000000000000000000100000000000000000000000000fe3b557e8fb62b89f4916b721be55ceb828dbd7300000000000000000000000000000000000000000000000000000000000000115646696e616e636520526567697374727900000000000000000000000000000000000000000000000000000000000000000000000000000000000000000000045652454700000000000000000000000000000000000000000000000000000000000000000000000000000000000000000000000000000000000000000000001a687474703a2f2f3134342e32322e3137392e3138333a33303030000000000000",
        "nonce": "0xec",
        "chainId": "0x539"
      },
      "additionalContracts": [],
      "isFixedGasLimit": false
    }
  ],
  "receipts": [
    {
      "status": "0x1",
      "cumulativeGasUsed": "0x70a2f",
      "logs": [
        {
          "address": "0xf4074b3685f8f40f2dca83742dab19912a0eb2c3",
          "topics": [
            "0x8be0079c531659141344cd1fd0a4f28419497f9722a3daafe3b4186f6b6457e0",
            "0x0000000000000000000000000000000000000000000000000000000000000000",
            "0x000000000000000000000000fe3b557e8fb62b89f4916b721be55ceb828dbd73"
          ],
          "data": "0x",
          "blockHash": "0x79acba2f496e56e3c2d528f67ecb93617ce9d6fdd68cab2c7727e933e9f11335",
          "blockNumber": "0xe3dc5",
          "transactionHash": "0x29a8e8a89472180fe0ffd38ed85ea02dd4fccbd4db021ca9ec9e678e5548d6da",
          "transactionIndex": "0x0",
          "logIndex": "0x0",
          "removed": false
        },
        {
          "address": "0xf4074b3685f8f40f2dca83742dab19912a0eb2c3",
          "topics": [
            "0xd6a561f68236f1785e9c45009eba5ac6bfb0ae92da53a5dbc4995423886d320d",
            "0x0000000000000000000000000000000000000000000000000000000000000001"
          ],
          "data": "0x00000000000000000000000000000000000000000000000000000000000000200000000000000000000000000000000000000000000000000000000000000006544f594f54410000000000000000000000000000000000000000000000000000",
          "blockHash": "0x79acba2f496e56e3c2d528f67ecb93617ce9d6fdd68cab2c7727e933e9f11335",
          "blockNumber": "0xe3dc5",
          "transactionHash": "0x29a8e8a89472180fe0ffd38ed85ea02dd4fccbd4db021ca9ec9e678e5548d6da",
          "transactionIndex": "0x0",
          "logIndex": "0x1",
          "removed": false
        },
        {
          "address": "0xf4074b3685f8f40f2dca83742dab19912a0eb2c3",
          "topics": [
            "0xd6a561f68236f1785e9c45009eba5ac6bfb0ae92da53a5dbc4995423886d320d",
            "0x0000000000000000000000000000000000000000000000000000000000000002"
          ],
          "data": "0x00000000000000000000000000000000000000000000000000000000000000200000000000000000000000000000000000000000000000000000000000000005484f4e4441000000000000000000000000000000000000000000000000000000",
          "blockHash": "0x79acba2f496e56e3c2d528f67ecb93617ce9d6fdd68cab2c7727e933e9f11335",
          "blockNumber": "0xe3dc5",
          "transactionHash": "0x29a8e8a89472180fe0ffd38ed85ea02dd4fccbd4db021ca9ec9e678e5548d6da",
          "transactionIndex": "0x0",
          "logIndex": "0x2",
          "removed": false
        },
        {
          "address": "0xf4074b3685f8f40f2dca83742dab19912a0eb2c3",
          "topics": [
            "0xd6a561f68236f1785e9c45009eba5ac6bfb0ae92da53a5dbc4995423886d320d",
            "0x0000000000000000000000000000000000000000000000000000000000000003"
          ],
          "data": "0x0000000000000000000000000000000000000000000000000000000000000020000000000000000000000000000000000000000000000000000000000000000a564f4c4b53574147454e00000000000000000000000000000000000000000000",
          "blockHash": "0x79acba2f496e56e3c2d528f67ecb93617ce9d6fdd68cab2c7727e933e9f11335",
          "blockNumber": "0xe3dc5",
          "transactionHash": "0x29a8e8a89472180fe0ffd38ed85ea02dd4fccbd4db021ca9ec9e678e5548d6da",
          "transactionIndex": "0x0",
          "logIndex": "0x3",
          "removed": false
        },
        {
          "address": "0xf4074b3685f8f40f2dca83742dab19912a0eb2c3",
          "topics": [
            "0xd6a561f68236f1785e9c45009eba5ac6bfb0ae92da53a5dbc4995423886d320d",
            "0x0000000000000000000000000000000000000000000000000000000000000004"
          ],
          "data": "0x000000000000000000000000000000000000000000000000000000000000002000000000000000000000000000000000000000000000000000000000000000044649415400000000000000000000000000000000000000000000000000000000",
          "blockHash": "0x79acba2f496e56e3c2d528f67ecb93617ce9d6fdd68cab2c7727e933e9f11335",
          "blockNumber": "0xe3dc5",
          "transactionHash": "0x29a8e8a89472180fe0ffd38ed85ea02dd4fccbd4db021ca9ec9e678e5548d6da",
          "transactionIndex": "0x0",
          "logIndex": "0x4",
          "removed": false
        },
        {
          "address": "0xf4074b3685f8f40f2dca83742dab19912a0eb2c3",
          "topics": [
            "0xd6a561f68236f1785e9c45009eba5ac6bfb0ae92da53a5dbc4995423886d320d",
            "0x0000000000000000000000000000000000000000000000000000000000000005"
          ],
          "data": "0x0000000000000000000000000000000000000000000000000000000000000020000000000000000000000000000000000000000000000000000000000000000943484556524f4c45540000000000000000000000000000000000000000000000",
          "blockHash": "0x79acba2f496e56e3c2d528f67ecb93617ce9d6fdd68cab2c7727e933e9f11335",
          "blockNumber": "0xe3dc5",
          "transactionHash": "0x29a8e8a89472180fe0ffd38ed85ea02dd4fccbd4db021ca9ec9e678e5548d6da",
          "transactionIndex": "0x0",
          "logIndex": "0x5",
          "removed": false
        },
        {
          "address": "0xf4074b3685f8f40f2dca83742dab19912a0eb2c3",
          "topics": [
            "0xd6a561f68236f1785e9c45009eba5ac6bfb0ae92da53a5dbc4995423886d320d",
            "0x0000000000000000000000000000000000000000000000000000000000000006"
          ],
          "data": "0x00000000000000000000000000000000000000000000000000000000000000200000000000000000000000000000000000000000000000000000000000000004464f524400000000000000000000000000000000000000000000000000000000",
          "blockHash": "0x79acba2f496e56e3c2d528f67ecb93617ce9d6fdd68cab2c7727e933e9f11335",
          "blockNumber": "0xe3dc5",
          "transactionHash": "0x29a8e8a89472180fe0ffd38ed85ea02dd4fccbd4db021ca9ec9e678e5548d6da",
          "transactionIndex": "0x0",
          "logIndex": "0x6",
          "removed": false
        },
        {
          "address": "0xf4074b3685f8f40f2dca83742dab19912a0eb2c3",
          "topics": [
            "0xd6a561f68236f1785e9c45009eba5ac6bfb0ae92da53a5dbc4995423886d320d",
            "0x0000000000000000000000000000000000000000000000000000000000000007"
          ],
          "data": "0x000000000000000000000000000000000000000000000000000000000000002000000000000000000000000000000000000000000000000000000000000000064e495353414e0000000000000000000000000000000000000000000000000000",
          "blockHash": "0x79acba2f496e56e3c2d528f67ecb93617ce9d6fdd68cab2c7727e933e9f11335",
          "blockNumber": "0xe3dc5",
          "transactionHash": "0x29a8e8a89472180fe0ffd38ed85ea02dd4fccbd4db021ca9ec9e678e5548d6da",
          "transactionIndex": "0x0",
          "logIndex": "0x7",
          "removed": false
        },
        {
          "address": "0xf4074b3685f8f40f2dca83742dab19912a0eb2c3",
          "topics": [
            "0xd6a561f68236f1785e9c45009eba5ac6bfb0ae92da53a5dbc4995423886d320d",
            "0x0000000000000000000000000000000000000000000000000000000000000008"
          ],
          "data": "0x000000000000000000000000000000000000000000000000000000000000002000000000000000000000000000000000000000000000000000000000000000074859554e44414900000000000000000000000000000000000000000000000000",
          "blockHash": "0x79acba2f496e56e3c2d528f67ecb93617ce9d6fdd68cab2c7727e933e9f11335",
          "blockNumber": "0xe3dc5",
          "transactionHash": "0x29a8e8a89472180fe0ffd38ed85ea02dd4fccbd4db021ca9ec9e678e5548d6da",
          "transactionIndex": "0x0",
          "logIndex": "0x8",
          "removed": false
        },
        {
          "address": "0xf4074b3685f8f40f2dca83742dab19912a0eb2c3",
          "topics": [
            "0xd6a561f68236f1785e9c45009eba5ac6bfb0ae92da53a5dbc4995423886d320d",
            "0x0000000000000000000000000000000000000000000000000000000000000009"
          ],
          "data": "0x0000000000000000000000000000000000000000000000000000000000000020000000000000000000000000000000000000000000000000000000000000000752454e41554c5400000000000000000000000000000000000000000000000000",
          "blockHash": "0x79acba2f496e56e3c2d528f67ecb93617ce9d6fdd68cab2c7727e933e9f11335",
          "blockNumber": "0xe3dc5",
          "transactionHash": "0x29a8e8a89472180fe0ffd38ed85ea02dd4fccbd4db021ca9ec9e678e5548d6da",
          "transactionIndex": "0x0",
          "logIndex": "0x9",
          "removed": false
        },
        {
          "address": "0xf4074b3685f8f40f2dca83742dab19912a0eb2c3",
          "topics": [
            "0xd6a561f68236f1785e9c45009eba5ac6bfb0ae92da53a5dbc4995423886d320d",
            "0x000000000000000000000000000000000000000000000000000000000000000a"
          ],
          "data": "0x0000000000000000000000000000000000000000000000000000000000000020000000000000000000000000000000000000000000000000000000000000000750455547454f5400000000000000000000000000000000000000000000000000",
          "blockHash": "0x79acba2f496e56e3c2d528f67ecb93617ce9d6fdd68cab2c7727e933e9f11335",
          "blockNumber": "0xe3dc5",
          "transactionHash": "0x29a8e8a89472180fe0ffd38ed85ea02dd4fccbd4db021ca9ec9e678e5548d6da",
          "transactionIndex": "0x0",
          "logIndex": "0xa",
          "removed": false
        },
        {
          "address": "0xf4074b3685f8f40f2dca83742dab19912a0eb2c3",
          "topics": [
            "0xfc545c0151b00b9a0ac4d74abb5522892064539eb246b848b96edccd3302e4be",
            "0x000000000000000000000000fe3b557e8fb62b89f4916b721be55ceb828dbd73"
          ],
          "data": "0x0000000000000000000000000000000000000000000000000000000000000020000000000000000000000000000000000000000000000000000000000000001a687474703a2f2f3134342e32322e3137392e3138333a33303030000000000000",
          "blockHash": "0x79acba2f496e56e3c2d528f67ecb93617ce9d6fdd68cab2c7727e933e9f11335",
          "blockNumber": "0xe3dc5",
          "transactionHash": "0x29a8e8a89472180fe0ffd38ed85ea02dd4fccbd4db021ca9ec9e678e5548d6da",
          "transactionIndex": "0x0",
          "logIndex": "0xb",
          "removed": false
        },
        {
          "address": "0xf4074b3685f8f40f2dca83742dab19912a0eb2c3",
          "topics": [
            "0xc7f505b2f371ae2175ee4913f4499e1f2633a7b5936321eed1cdaeb6115181d2"
          ],
          "data": "0x0000000000000000000000000000000000000000000000000000000000000001",
          "blockHash": "0x79acba2f496e56e3c2d528f67ecb93617ce9d6fdd68cab2c7727e933e9f11335",
          "blockNumber": "0xe3dc5",
          "transactionHash": "0x29a8e8a89472180fe0ffd38ed85ea02dd4fccbd4db021ca9ec9e678e5548d6da",
          "transactionIndex": "0x0",
          "logIndex": "0xc",
          "removed": false
        }
      ],
      "logsBloom": "0x04000000000000000000000000000000000400000000000000800000041000000000000000000000000000000000000000001000060480080020020000240000000030000000000000000000000000000001000000040000000000000000000008000000020000000000000100000a00000000000000000000000000000000600280000400000000010800000000001000001800000080000000000000000000000010000000000001000100000000000000000000800000002000080000400040000000000000000200000000000000000000008004000000000100000060000000000000000000000000000000000000000000008000000000000000800000",
      "type": "0x0",
      "transactionHash": "0x29a8e8a89472180fe0ffd38ed85ea02dd4fccbd4db021ca9ec9e678e5548d6da",
      "transactionIndex": "0x0",
      "blockHash": "0x79acba2f496e56e3c2d528f67ecb93617ce9d6fdd68cab2c7727e933e9f11335",
      "blockNumber": "0xe3dc5",
      "gasUsed": "0x70a2f",
      "effectiveGasPrice": "0x0",
      "from": "0xfe3b557e8fb62b89f4916b721be55ceb828dbd73",
      "to": "0xf4074b3685f8f40f2dca83742dab19912a0eb2c3",
      "contractAddress": null
    }
  ],
  "libraries": [],
  "pending": [],
  "returns": {},
  "timestamp": 1756927295699,
  "chain": 1337,
  "commit": "e18c6d0"
}